:020000040800F2
:1000000000280020551F0008651D00086D1D000810
:10001000751D00087D1D0008851D000800000000FA
:100020000000000000000000000000008D1D00081E
:10003000991D000800000000A51D0008B11D000862
:100040009D1F00089D1F00089D1F00089D1F0008A0
:100050009D1F00089D1F00089D1F00089D1F000890
:100060009D1F00089D1F00089D1F00089D1F000880
:100070009D1F00089D1F00089D1F00089D1F000870
:100080009D1F00089D1F00089D1F00089D1F000860
:100090009D1F00089D1F00089D1F00089D1F000850
:1000A0009D1F00089D1F00089D1F00089D1F000840
:1000B000BD1D00089D1F0008000000009D1F0008D6
:1000C0009D1F000800000000000000009D1F0008A8
:1000D000000000009D1F00089D1F00080000000098
:1000E0009D1F00089D1F00089D1F000800000000C4
:1000F0000000000000000000000000000000000000
:0C01000000000000000000005FF808F1A3
:10010C0010B5054C237833B9044B13B10448AFF345
:10011C0000800123237010BD64000020000000004B
:10012C00D435000808B5034B1BB103490348AFF3A2
:10013C00008008BD0000000068000020D4350008D5
:10014C0080B483B000AF7860094A7B6852F82330E2
:10015C00012B06D1064A7B68002142F823100123AB
:10016C0000E0002318460C37BD4680BC704700BF2A
:10017C008000002080B483B000AF7860044A7B68B4
:10018C00012142F8231000BF0C37BD4680BC7047DC
:10019C008000002080B582B000AF00237B6073E04C
:1001AC003D4A7B6852F823203C497B6841F8232068
:1001BC003B4A7B6852F8232037497B6841F823205F
:1001CC00384A7B6852F823309BB21946364802F005
:1001DC00CDF903461946324A7B6842F823102E4A61
:1001EC007B6852F823202E497B6851F823309A42C1
:1001FC0047D1294A7B6852F8232028497B6851F85B
:10020C0023309A423DD1254A7B6852F82320274956
:10021C007B6851F823309A4216D0204A7B6852F8FA
:10022C00232022497B6841F82320204A7B6852F81E
:10023C002330002B25D11E4A7B68C82142F823109D
:10024C007868FFF797FF1CE0194A7B6852F8233057
:10025C005A1E17497B6841F82320154A7B6852F8CF
:10026C002330002B0DD1124A7B68C82142F8231091
:10027C000E4A7B6852F82330002B02D17868FFF7C6
:10028C0079FF7B6801337B607B68022B88DD00BFC4
:10029C0000BF0837BD4680BD180000202400002098
:1002AC000C0000200000002000080140300000205D
:1002BC003C00002080B500AF3C4B1B68042B69D878
:1002CC0001A252F823F000BFE90200080103000864
:1002DC00290300085103000879030008334B01225D
:1002EC001A60334B1B68642202FB03F3184601F0BF
:1002FC00BFFB58E001F0C4FA01F06AFD2D4B1B68FE
:10030C00012B49D1294B02221A602B4B1B6864220A
:10031C0002FB03F3184601F0ABFB3DE001F0B0FA31
:10032C0001F056FD234B1B68012B37D11F4B0322C9
:10033C001A601F4B1B68642202FB03F3184601F082
:10034C0097FB2BE001F09CFA01F042FD194B1B6866
:10035C00012B25D1154B04221A60174B1B68642204
:10036C0002FB03F3184601F083FB19E001F088FA55
:10037C0001F02EFD0F4B1B68012B13D10B4B0122EF
:10038C001A600B4B1B68642202FB03F3184601F046
:10039C006FFB07E000BF06E000BF04E000BF02E017
:1003AC0000BF00E000BF00BF80BD00BF8C0000207C
:1003BC004C000020140100205000002080B582B0B9
:1003CC0000AF7860354B1B68022B30D0022B5BDC06
:1003DC00002B02D0012B07D056E0304B01221A60C3
:1003EC00322001F081FB54E0012000F0DDFA2C4BAF
:1003FC001B682C4A82FB03129210DB17D31A184687
:10040C0000F0E0FC7B68274A82FB03129210DB179A
:10041C00D31A184600F00CFB234B1B68012B35D16B
:10042C00322001F061FB1D4B02221A602EE00220EB
:10043C0000F0BAFA1A4B1A681A4B83FB0213991084
:10044C00D317C91A0B469B000B445B00D11A084604
:10045C0000F0B8FC7A68134B83FB02139910D31786
:10046C00C91A0B469B000B445B00D11A084600F0DE
:10047C00DFFA0D4B1B68012B0AD1322001F034FB43
:10048C00064B01221A6003E000BF02E000BF00E04F
:10049C0000BF00BF0837BD4680BD00BFAC000020C8
:1004AC0054000020676666662C01002080B500AF02
:1004BC008A4B1B68013B032B00F2A58101A252F869
:1004CC0023F000BFE104000801050008EB0500085B
:1004DC0011070008FFF7EEFE0020FFF731FE034680
:1004EC00012B40F092817D4B02221A60192001F001
:1004FC00E7FA8AE17A4B1B681846FFF75FFF794BE6
:10050C001B68012B1FD10421774802F05EF84021B3
:10051C00754802F05AF800220821734802F03DF8A1
:10052C0000228021704802F038F8002210216E4819
:10053C0002F033F800224FF480716B4802F02DF872
:10054C00192001F0BDFA0020FFF7FAFD0346012B3C
:10055C0008D1624B03221A60614B00221A601920E9
:10056C0001F0AEFA0120FFF7EBFD0346012B0BD196
:10057C005B4B1B6801335A4A1360594B1B68632B46
:10058C0002DD574B00221A600220FFF7D9FD03460B
:10059C00012B40F03C81524B1A68544B1B689A4219
:1005AC0003DC534B1B684E4A13604D4B1B68504A7F
:1005BC0013604F4B1A684D4B1B68D31A4D4A13608E
:1005CC00474B00221A6000F03BF94B4B00221A609B
:1005DC004A4B00221A60414B01221A6017E1484B2A
:1005EC001B681846FFF7EAFE3E4B1B68012B1FD118
:1005FC0008213D4801F0E9FF80213B4801F0E5FF6F
:10060C0000220421384801F0C8FF0022402136485E
:10061C0001F0C3FF00221021334801F0BEFF00227D
:10062C004FF48071304801F0B8FF192001F048FAFE
:10063C000020FFF785FD0346012B08D1274B042230
:10064C001A602F4B00221A60192001F039FA012090
:10065C00FFF776FD0346012B0BD1294B1B680133A9
:10066C00274A1360264B1B68622B02DD244B0022A9
:10067C001A600220FFF764FD0346012B40F0C9808D
:10068C001F4B1B68002B00F0C4801D4B1B68194AC4
:10069C001360164B1A68174B1B681344144A1360EB
:1006AC00174B00221A60124B1B68632B09DD104B91
:1006BC0063221A600E4B1A680E4B1B68D31A0B4A36
:1006CC00136000F0BDF80C4B00221A600B4B00229B
:1006DC001A60024B01221A609BE000BF54000020FC
:1006EC00B000002024010020000801405000002030
:1006FC00480000204C0000208C00002090000020BE
:10070C00B4000020454B1B681846FFF757FE444BBE
:10071C001B68012B1FD11021424801F056FF4FF4EA
:10072C008071404801F051FF002208213D4801F042
:10073C0034FF002280213B4801F02FFF00220421CE
:10074C00384801F02AFF00224021364801F025FFED
:10075C00192001F0B5F90020FFF7F2FC0346012B3C
:10076C000DD12E4B00221A602F4B01221A6000F083
:10077C0067F82E4B00221A602D4B00221A600120C4
:10078C00FFF7DEFC0346012B0BD1244B1B68013316
:10079C00224A1360214B1B68622B02DD1F4B002287
:1007AC001A600220FFF7CCFC0346012B33D11B4B04
:1007BC001B68002B2FD0194B1B681E4A1360174B5C
:1007CC0000221A601C4B1A681A4B1B6813441B4AF4
:1007DC0013601A4B1B68632B09DD184B63221A60DC
:1007EC00164B1A68134B1B68D31A134A136000F08C
:1007FC0027F80E4B00221A600D4B00221A600A4B90
:10080C0001221A6007E000BF06E000BF04E000BF51
:10081C0002E000BF00E000BF00BF80BDB8000020B8
:10082C002401002000080140540000208C0000200E
:10083C0090000020500000204C00002048000020B8
:10084C0080B400AF274B1B68274A82FB031292101F
:10085C00DB17D31A254A1360224B1968224B83FBF2
:10086C0001239A10CB17D21A13469B0013445B003A
:10087C00CA1A1E4B5A601E4B1B681B4A82FB031282
:10088C009210DB17D31A194A9360194B1968164B3F
:10089C0083FB01239A10CB17D21A13469B001344E7
:1008AC005B00CA1A114BDA60124B1B680E4A82FBB2
:1008BC0003129210DB17D31A0C4A13610D4B1968F3
:1008CC00094B83FB01239A10CB17D21A13469B00BA
:1008DC0013445B00CA1A054B5A6100BFBD4680BC6D
:1008EC00704700BF480000206766666694000020D1
:1008FC004C0000205000002080B586B000AF274B84
:10090C009B69264A43F004039361244B9B6903F0D3
:10091C0004037B607B68214B9B69204A43F00803EE
:10092C0093611E4B9B6903F008033B603B6807F126
:10093C00080300221A605A609A60DA604FF2FC13C6
:10094C00BB600123FB6000233B6102237B6107F149
:10095C0008031946124801F08DFC4FF46063BB602C
:10096C000023FB6001233B6107F1080319460C4887
:10097C0001F080FC43F6FF73BB600123FB60002396
:10098C003B6102237B6107F108031946054801F01E
:10099C0071FC00BF1837BD4680BD00BF001002407F
:1009AC0000080140000C014080B582B000AF7860B7
:1009BC007B68012B03D07B68022B19D031E000221D
:1009CC004FF48051194801F0E8FD01224FF4005119
:1009DC00164801F0E2FD00224FF48041134801F06B
:1009EC00DCFD01224FF40041104801F0D6FD18E067
:1009FC0001224FF480510D4801F0CFFD00224FF43D
:100A0C0000510A4801F0C9FD01224FF4804107480A
:100A1C0001F0C3FD00224FF40041044801F0BDFD7C
:100A2C0000BF00BF0837BD4680BD00BF00080140B5
:100A3C0080B582B000AF78607B68092B00F2BC8176
:100A4C0001A252F823F000BF7D0A0008D10A000869
:100A5C00250B0008790B0008CD0B0008210C0008B1
:100A6C00750C0008C90C00081D0D0008710D00085C
:100A7C0000228021D24801F090FD00224FF48071B9
:100A8C00CF4801F08AFD00224FF40071CC4801F0F0
:100A9C0084FD00224FF48061C94801F07EFD0022E4
:100AAC004FF40061C64801F078FD00224FF48051EC
:100ABC00C34801F072FD01224FF40051C04801F00F
:100ACC006CFD79E101228021BD4801F066FD002218
:100ADC004FF48071BA4801F060FD00224FF40071B0
:100AEC00B74801F05AFD01224FF48061B44801F07F
:100AFC0054FD01224FF40061B14801F04EFD01227A
:100B0C004FF48051AE4801F048FD01224FF40051E2
:100B1C00AB4801F042FD4FE100228021A84801F0D2
:100B2C003CFD00224FF48071A54801F036FD0122F6
:100B3C004FF40071A24801F030FD00224FF48061A7
:100B4C009F4801F02AFD00224FF400619C4801F0FF
:100B5C0024FD01224FF48051994801F01EFD002222
:100B6C004FF40051964801F018FD25E10022802138
:100B7C00934801F012FD00224FF48071904801F06F
:100B8C000CFD00224FF400718D4801F006FD00228F
:100B9C004FF480618A4801F000FD01224FF400619E
:100BAC00874801F0FAFC01224FF48051844801F08F
:100BBC00F4FC00224FF40051814801F0EEFCFBE004
:100BCC00012280217E4801F0E8FC00224FF4807164
:100BDC007B4801F0E2FC00224FF40071784801F0F0
:100BEC00DCFC01224FF48061754801F0D6FC012237
:100BFC004FF40061724801F0D0FC00224FF4805198
:100C0C006F4801F0CAFC00224FF400516C4801F00F
:100C1C00C4FCD1E000228021694801F0BEFC012215
:100C2C004FF48071664801F0B8FC00224FF400715B
:100C3C00634801F0B2FC00224FF48061604801F07F
:100C4C00ACFC01224FF400615D4801F0A6FC0022CF
:100C5C004FF480515A4801F0A0FC00224FF400518F
:100C6C00574801F09AFCA7E000228021544801F07B
:100C7C0094FC01224FF48071514801F08EFC00224B
:100C8C004FF400714E4801F088FC00224FF4806153
:100C9C004B4801F082FC00224FF40061484801F0FF
:100CAC007CFC00224FF48051454801F076FC002278
:100CBC004FF40051424801F070FC7DE0002280218D
:100CCC003F4801F06AFC00224FF480713C4801F06F
:100CDC0064FC00224FF40071394801F05EFC0122E3
:100CEC004FF48061364801F058FC01224FF400614A
:100CFC00334801F052FC01224FF48051304801F08E
:100D0C004CFC01224FF400512D4801F046FC53E0FD
:100D1C00002280212A4801F040FC00224FF480710F
:100D2C00274801F03AFC00224FF40071244801F0EE
:100D3C0034FC00224FF48061214801F02EFC00228B
:100D4C004FF400611E4801F028FC00224FF4805142
:100D5C001B4801F022FC00224FF40051184801F00E
:100D6C001CFC29E000228021154801F016FC002211
:100D7C004FF48071124801F010FC00224FF4007106
:100D8C000F4801F00AFC00224FF480610C4801F07E
:100D9C0004FC01224FF40061094801F0FEFB002223
:100DAC004FF48051064801F0F8FB00224FF400513B
:100DBC00034801F0F2FB00BF00BF0837BD4680BD01
:100DCC00000C014080B582B000AF78607B68092BC5
:100DDC0000F2808101A252F823F000BF110E00082E
:100DEC00590E0008A10E0008E90E0008310F00088A
:100DFC00790F0008C10F00080910000851100008F5
:100E0C009910000800220121B44801F0C6FB002211
:100E1C000221B24801F0C1FB00220421AF4801F0CD
:100E2C00BCFB00220821AD4801F0B7FB00221021C9
:100E3C00AA4801F0B2FB00222021A84801F0ADFB2A
:100E4C0001224021A54801F0A8FB43E10122012128
:100E5C00A24801F0A2FB00220221A04801F09DFB58
:100E6C00002204219D4801F098FB012208219B4897
:100E7C0001F093FB01221021984801F08EFB012216
:100E8C002021964801F089FB01224021934801F072
:100E9C0084FB1FE100220121904801F07EFB00221F
:100EAC0002218E4801F079FB012204218B4801F0CC
:100EBC0074FB00220821894801F06FFB00221021ED
:100ECC00864801F06AFB01222021844801F065FB71
:100EDC0000224021814801F060FBFBE0002201214F
:100EEC007E4801F05AFB002202217C4801F055FBA0
:100EFC0000220421794801F050FB00220821774898
:100F0C0001F04BFB01221021744801F046FB012239
:100F1C002021724801F041FB002240216F4801F072
:100F2C003CFBD7E0012201216C4801F036FB00228A
:100F3C0002216A4801F031FB00220421674801F0CC
:100F4C002CFB01220821654801F027FB012210210E
:100F5C00624801F022FB00222021604801F01DFBB9
:100F6C00002240215D4801F018FBB3E00022012172
:100F7C005A4801F012FB01220221584801F00DFBE6
:100F8C0000220421554801F008FB00220821534897
:100F9C0001F003FB01221021504801F0FEFA00225F
:100FAC0020214E4801F0F9FA002240214B4801F073
:100FBC00F4FA8FE000220121484801F0EEFA0122F8
:100FCC000221464801F0E9FA00220421434801F0CD
:100FDC00E4FA00220821414801F0DFFA0022102136
:100FEC003E4801F0DAFA002220213C4801F0D5FA03
:100FFC0000224021394801F0D0FA6BE00022012197
:10100C00364801F0CAFA00220221344801F0C5FA30
:10101C0000220421314801F0C0FA012208212F4896
:10102C0001F0BBFA012210212C4801F0B6FA012282
:10103C0020212A4801F0B1FA01224021274801F071
:10104C00ACFA47E000220121244801F0A6FA002264
:10105C000221224801F0A1FA002204211F4801F0CC
:10106C009CFA002208211D4801F097FA0022102159
:10107C001A4801F092FA00222021184801F08DFA4A
:10108C0000224021154801F088FA23E000220121BA
:10109C00124801F082FA00220221104801F07DFA78
:1010AC00002204210D4801F078FA002208210B4897
:1010BC0001F073FA01221021084801F06EFA0022A7
:1010CC002021064801F069FA00224021034801F072
:1010DC0064FA00BF00BF0837BD4680BD000C01405C
:1010EC0080B500AF714B1B68022B00F0BB80022B4C
:1010FC0000F3DA80002B03D0012B00F09B80D3E0AF
:10110C006B4B5B68002B0BDA694B1B68002B07DD04
:10111C00674B09225A60664B1B68013B644A13609B
:10112C00634B1B68002B1CD1614B5B68002B18D1E7
:10113C00604B1B68604A82FB03129210DB17D31AB8
:10114C005B4A13605B4B19685B4B83FB01239A1062
:10115C00CB17D21A13469B0013445B00CA1A544B8C
:10116C005A60534BDB68002B0BDA514B9B68002BFE
:10117C0007DD4F4B0922DA604D4B9B68013B4C4A13
:10118C0093604B4B9B68002B1CD1494BDB68002BAD
:10119C0018D14A4B1B68484A82FB03129210DB178A
:1011AC00D31A434A9360454B1968434B83FB012385
:1011BC009A10CB17D21A13469B0013445B00CA1A21
:1011CC003B4BDA603A4B5B69002B0BDA384B1B69F3
:1011DC00002B07DD364B09225A61354B1B69013B4D
:1011EC00334A1361324B1B69002B1CD1304B5B69AA
:1011FC00002B18D1324B1B682F4A82FB0312921022
:10120C00DB17D31A2A4A13612D4B19682A4B83FB1F
:10121C0001239A10CB17D21A13469B0013445B0080
:10122C00CA1A234B5A61322000F036FC1F4B0122A4
:10123C001A6039E00120FFF7B7FB1D4B1B691846FC
:10124C00FFF7C0FD1A4B1B681846FFF7F1FB1D4B4F
:10125C001B68012B25D1154B02221A60322000F09D
:10126C001BFC1EE00220FFF79FFB114B5B6918462D
:10127C00FFF7A8FD0E4B5B681846FFF7D9FB114B27
:10128C001B68012B0FD10A4B5B68013B084A53606A
:10129C00074B5B69013B064A5361044B00221A6001
:1012AC0001E000BF00E000BF00BF80BD9000002047
:1012BC009400002048000020676666664C00002001
:1012CC00500000201C01002080B500AF714B1B6842
:1012DC00022B00F0BB80022B00F3DA80002B03D032
:1012EC00012B00F09B80D3E06B4B5B68002B0BDA7F
:1012FC00694B1B68002B07DD674B09225A60664B54
:10130C001B68013B644A1360634B1B68002B1CD1A8
:10131C00614B5B68002B18D1604B1B68604A82FBE9
:10132C0003129210DB17D31A5B4A13605B4B1968DC
:10133C005B4B83FB01239A10CB17D21A13469B00ED
:10134C0013445B00CA1A544B5A60534BDB68002B96
:10135C000BDA514B9B68002B07DD4F4B0922DA60EF
:10136C004D4B9B68013B4C4A93604B4B9B68002B4D
:10137C001CD1494BDB68002B18D14A4B1B68484ADF
:10138C0082FB03129210DB17D31A434A9360454B2E
:10139C001968434B83FB01239A10CB17D21A1346BF
:1013AC009B0013445B00CA1A3B4BDA603A4B5B69F7
:1013BC00002B0BDA384B1B69002B07DD364B09224F
:1013CC005A61354B1B69013B334A1361324B1B6924
:1013DC00002B1CD1304B5B69002B18D1324B1B6896
:1013EC002F4A82FB03129210DB17D31A2A4A13617D
:1013FC002D4B19682A4B83FB01239A10CB17D21A59
:10140C0013469B0013445B00CA1A234B5A613220CB
:10141C0000F042FB1F4B01221A6039E00120FFF75C
:10142C00C3FA1D4B9B681846FFF7CCFC1A4B1B6884
:10143C001846FFF7FDFA1D4B1B68012B25D1154BE8
:10144C0002221A60322000F027FB1EE00220FFF778
:10145C00ABFA114BDB681846FFF7B4FC0E4B5B681C
:10146C001846FFF7E5FA114B1B68012B0FD10A4BFD
:10147C005B68013B084A5360074BDB68013B064A3B
:10148C00D360044B00221A6001E000BF00E000BFF3
:10149C0000BF80BD90000020940000204800002078
:1014AC00676666664C000020500000201C0100207E
:1014BC0080B500AF714B1B68022B00F0BB80022B78
:1014CC0000F3DA80002B03D0012B00F09B80D3E0DB
:1014DC006B4B5B68002B0BDA694B1B68002B07DD31
:1014EC00674B09225A60664B1B68013B644A1360C8
:1014FC00634B1B68002B1CD1614B5B68002B18D114
:10150C00604B1B68604A82FB03129210DB17D31AE4
:10151C005B4A13605B4B19685B4B83FB01239A108E
:10152C00CB17D21A13469B0013445B00CA1A544BB8
:10153C005A60534BDB68002B0BDA514B9B68002B2A
:10154C0007DD4F4B0922DA604D4B9B68013B4C4A3F
:10155C0093604B4B9B68002B1CD1494BDB68002BD9
:10156C0018D14A4B1B68484A82FB03129210DB17B6
:10157C00D31A434A9360454B1968434B83FB0123B1
:10158C009A10CB17D21A13469B0013445B00CA1A4D
:10159C003B4BDA603A4B5B69002B0BDA384B1B691F
:1015AC00002B07DD364B09225A61354B1B69013B79
:1015BC00334A1361324B1B69002B1CD1304B5B69D6
:1015CC00002B18D1324B1B682F4A82FB031292104E
:1015DC00DB17D31A2A4A13612D4B19682A4B83FB4C
:1015EC0001239A10CB17D21A13469B0013445B00AD
:1015FC00CA1A234B5A61322000F04EFA1F4B0122BB
:10160C001A6039E00120FFF7CFF91D4B1B68184613
:10161C00FFF7D8FB1A4B1B691846FFF709FA1D4B4D
:10162C001B68012B25D1154B02221A60322000F0C9
:10163C0033FA1EE00220FFF7B7F9114B5B6818462E
:10164C00FFF7C0FB0E4B5B691846FFF7F1F9114B26
:10165C001B68012B0FD10A4B5B68013B084A536096
:10166C00074B5B69013B064A5361044B00221A602D
:10167C0001E000BF00E000BF00BF80BD9000002073
:10168C009400002048000020676666664C0000202D
:10169C00500000201C01002080B500AF714B1B686E
:1016AC00022B00F0BB80022B00F3DA80002B03D05E
:1016BC00012B00F09B80D3E06B4B5B68002B0BDAAB
:1016CC00694B1B68002B07DD674B09225A60664B80
:1016DC001B68013B644A1360634B1B68002B1CD1D5
:1016EC00614B5B68002B18D1604B1B68604A82FB16
:1016FC0003129210DB17D31A5B4A13605B4B196809
:10170C005B4B83FB01239A10CB17D21A13469B0019
:10171C0013445B00CA1A544B5A60534BDB68002BC2
:10172C000BDA514B9B68002B07DD4F4B0922DA601B
:10173C004D4B9B68013B4C4A93604B4B9B68002B79
:10174C001CD1494BDB68002B18D14A4B1B68484A0B
:10175C0082FB03129210DB17D31A434A9360454B5A
:10176C001968434B83FB01239A10CB17D21A1346EB
:10177C009B0013445B00CA1A3B4BDA603A4B5B6923
:10178C00002B0BDA384B1B69002B07DD364B09227B
:10179C005A61354B1B69013B334A1361324B1B6950
:1017AC00002B1CD1304B5B69002B18D1324B1B68C2
:1017BC002F4A82FB03129210DB17D31A2A4A1361A9
:1017CC002D4B19682A4B83FB01239A10CB17D21A85
:1017DC0013469B0013445B00CA1A234B5A613220F8
:1017EC0000F05AF91F4B01221A6039E00120FFF773
:1017FC00DBF81D4B1B681846FFF7E4FA1A4B9B6885
:10180C001846FFF715F91D4B1B68012B25D1154BFD
:10181C0002221A60322000F03FF91EE00220FFF78E
:10182C00C3F8114B5B681846FFF7CCFA0E4BDB681C
:10183C001846FFF7FDF8114B1B68012B0FD10A4B13
:10184C005B68013B084A5360074BDB68013B064A67
:10185C00D360044B00221A6001E000BF00E000BF1F
:10186C0000BF80BD900000209400002048000020A4
:10187C00676666664C000020500000201C010020AA
:10188C0080B500AF0F4B1B68013B032B16D801A290
:10189C0052F823F0B1180008B7180008BD1800085A
:1018AC00C3180008FFF7F8FE09E0FFF701FE06E099
:1018BC00FFF70AFD03E0FFF713FC00E000BF00BFD9
:1018CC0080BD00BF8C00002080B500AF00F062FB33
:1018DC0000F020F800F05AF80B4801F0BDFAFFF7C1
:1018EC000BF8FEF7ADFF642000F0AEF8074B1B6859
:1018FC00012B06D1642000F0A7F82021044800F049
:10190C0064FEFEF7D3FDF1E7BC00002004010020CB
:10191C000008014080B590B000AF07F118032822F1
:10192C000021184601F024FE3B1D00221A605A606B
:10193C009A60DA601A610223BB610123BB62102337
:10194C00FB6200237B6307F11803184600F056FE78
:10195C000346002B01D000F071F80F237B600023AD
:10196C00BB600023FB6000233B6100237B613B1DBC
:10197C000021184601F0C4F80346002B01D000F0FA
:10198C005DF800BF4037BD4680BD000080B586B015
:10199C0000AF07F1080300221A605A609A60DA60FF
:1019AC003B4600221A605A601D4B4FF080421A6071
:1019BC001B4B41F63F725A60194B00229A60184B30
:1019CC000922DA60164B00221A61154B00229A612B
:1019DC00134801F0F1F90346002B01D000F02EF86A
:1019EC004FF48053BB6007F1080319460C4801F013
:1019FC006FFB0346002B01D000F020F800233B6066
:101A0C0000237B603B461946054801F047FD034621
:101A1C00002B01D000F012F800BF1837BD4680BD76
:101A2C00BC00002080B582B000AF786000F070F888
:101A3C00FEF7B0FB00BF0837BD4680BD80B400AFD9
:101A4C0072B600BF00BFFDE780B483B000AF786012
:101A5C00054A7B681360054B00221A6000BF0C37E7
:101A6C00BD4680BC704700BF080100200401002067
:101A7C0080B483B000AF7860054A7B681360054B77
:101A8C0000221A6000BF0C37BD4680BC704700BFF7
:101A9C00180100201401002080B483B000AF7860DE
:101AAC00054A7B681360054B00221A6000BF0C3797
:101ABC00BD4680BC704700BF200100201C010020E7
:101ACC0080B483B000AF7860054A7B681360054B27
:101ADC0000221A6000BF0C37BD4680BC704700BFA7
:101AEC00280100202401002080B483B000AF78606E
:101AFC00054A7B681360054B00221A6000BF0C3747
:101B0C00BD4680BC704700BF300100202C01002076
:101B1C0080B400AF514B1B68002B0BDD4F4B1B6887
:101B2C00013B4E4A13604D4B1B68002B02DC4C4BA7
:101B3C0001221A604B4B1B68002B0BDD494B1B68B9
:101B4C00013B484A1360474B1B68002B02DC464B99
:101B5C0001221A60454B1B68002B0BDD434B1B68A5
:101B6C00013B424A1360414B1B68002B02DC404B8B
:101B7C0001221A603F4B1B68002B0BDD3D4B1B6891
:101B8C00013B3C4A13603B4B1B68002B02DC3A4B7D
:101B9C0001221A60394B1B68002B0BDD374B1B687D
:101BAC00013B364A1360354B1B68002B02DC344B6F
:101BBC0001221A60334B1B68002B0BDD314B1B6869
:101BCC00013B304A13602F4B1B68002B02DC2E4B61
:101BDC0001221A602D4B1B68002B0BDD2B4B1B6855
:101BEC00013B2A4A1360294B1B68002B02DC284B53
:101BFC0001221A60274B1B68002B0BDD254B1B6841
:101C0C00013B244A1360234B1B68002B02DC224B44
:101C1C0001221A60214B1B68002B0BDD1F4B1B682C
:101C2C00013B1E4A13601D4B1B68002B02DC1C4B36
:101C3C0001221A601B4B1B68002B0BDD194B1B6818
:101C4C00013B184A1360174B1B68002B02DC164B28
:101C5C0001221A6000BFBD4680BC704708010020FD
:101C6C0004010020100100200C01002018010020AC
:101C7C0014010020200100201C010020280100205C
:101C8C0024010020300100202C010020380100200C
:101C9C0034010020400100203C01002048010020BC
:101CAC0044010020500100204C01002080B485B07C
:101CBC0000AF154B9B69144A43F001039361124B1F
:101CCC009B6903F00103BB60BB680F4BDB690E4AD9
:101CDC0043F08053D3610C4BDB6903F080537B6082
:101CEC007B680A4B5B68FB60FB6823F0E063FB607E
:101CFC00FB6843F08063FB60044AFB68536000BFE1
:101D0C001437BD4680BC70470010024000000140F3
:101D1C0080B584B000AF78607B681B68B3F1804FEE
:101D2C0013D10C4BDB690B4A43F00103D361094B14
:101D3C00DB6903F00103FB60FB68002200211C201F
:101D4C0000F061FA1C2000F07AFA00BF1037BD4693
:101D5C0080BD00BF0010024080B400AF00BFFDE7A3
:101D6C0080B400AF00BFFDE780B400AF00BFFDE75B
:101D7C0080B400AF00BFFDE780B400AF00BFFDE74B
:101D8C0080B400AF00BFBD4680BC704780B400AFCC
:101D9C0000BFBD4680BC704780B400AF00BFBD46DD
:101DAC0080BC704780B500AF00F03AF900BF80BD31
:101DBC0080B500AF024801F09BF800BF80BD00BFAA
:101DCC00BC00002080B400AF00BFBD4680BC704793
:101DDC0080B500AF5A4B1B68042B00F2AD8001A2FA
:101DEC0052F823F0051E0008451E0008851E000849
:101DFC00C51E0008051F000800220421514800F0F0
:101E0C00CCFB002208214F4800F0C7FB0022102118
:101E1C004C4800F0C2FB002240214A4800F0BDFBB8
:101E2C0000228021474800F0B8FB00224FF480715B
:101E3C00444800F0B2FB80E001220421414800F04C
:101E4C00ACFB002208213F4800F0A7FB0022102128
:101E5C003C4800F0A2FB002240213A4800F09DFBD8
:101E6C0001228021374800F098FB00224FF480714A
:101E7C00344800F092FB60E001220421314800F06C
:101E8C008CFB002208212F4800F087FB0022102138
:101E9C002C4800F082FB002240212A4800F07DFBF8
:101EAC0000228021274800F078FB01224FF480713A
:101EBC00244800F072FB40E000220421214800F08D
:101ECC006CFB012208211F4800F067FB0022102147
:101EDC001C4800F062FB012240211A4800F05DFB17
:101EEC0000228021174800F058FB00224FF480712B
:101EFC00144800F052FB20E000220421114800F0AD
:101F0C004CFB002208210F4800F047FB0122102156
:101F1C000C4800F042FB012240210A4800F03DFB36
:101F2C0000228021074800F038FB00224FF480711A
:101F3C00044800F032FB00E000BF00BF80BD00BFD2
:101F4C008C00002000080140FFF73CFF0B480C49B7
:101F5C000C4A002302E0D458C4500433C4188C42F9
:101F6C00F9D3094A094C002301E013600432A24260
:101F7C00FBD301F005FBFFF7A7FC70470000002026
:101F8C00640000201836000864000020580100206E
:101F9C00FEE7000080B500AF084B1B68074A43F012
:101FAC0010031360032000F023F90F2000F008F851
:101FBC00FFF77CFE0023184680BD00BF00200240C6
:101FCC0080B582B000AF7860124B1A68124B1B7848
:101FDC0019464FF47A73B3FBF1F3B2FBF3F31846E3
:101FEC0000F03BF90346002B01D001230EE07B6887
:101FFC000F2B0AD8002279684FF0FF3000F003F95C
:10200C00064A7B681360002300E00123184608375A
:10201C00BD4680BD58000020600000205C00002000
:10202C0080B400AF054B1B781A46054B1B68134454
:10203C00034A136000BFBD4680BC7047600000209F
:10204C005401002080B400AF024B1B681846BD46FB
:10205C0080BC70475401002080B485B000AF78601C
:10206C007B6803F00703FB600C4BDB68BB60BA6852
:10207C004FF6FF031340BB60FB681A02BB681343A7
:10208C0043F0BF6343F40033BB60044ABB68D360C6
:10209C0000BF1437BD4680BC704700BF00ED00E0A8
:1020AC0080B400AF044BDB681B0A03F0070318462F
:1020BC00BD4680BC704700BF00ED00E080B483B02B
:1020CC0000AF0346FB7197F90730002B0BDBFB7954
:1020DC0003F01F02064997F907305B09012000FA4B
:1020EC0002F241F8232000BF0C37BD4680BC70477C
:1020FC0000E100E080B483B000AF03463960FB71AF
:10210C0097F90730002B0ADB3B68DAB20C4997F9D8
:10211C0007301201D2B20B4483F800230AE03B686B
:10212C00DAB20849FB7903F00F03043B1201D2B277
:10213C000B441A7600BF0C37BD4680BC704700BFFD
:10214C0000E100E000ED00E080B489B000AFF86081
:10215C00B9607A60FB6803F00703FB61FB69C3F1AC
:10216C000703042B28BF0423BB61FB690433062B34
:10217C0002D9FB69033B00E000237B614FF0FF3287
:10218C00BB6902FA03F3DA43BB681A407B699A40D5
:10219C004FF0FF317B6901FA03F3D9437B680B40A5
:1021AC00134318462437BD4680BC704780B582B0B7
:1021BC0000AF78607B68013BB3F1807F01D30123D2
:1021CC000FE00A4A7B68013B53600F214FF0FF3050
:1021DC00FFF790FF054B00229A60044B07221A6010
:1021EC00002318460837BD4680BD00BF10E000E054
:1021FC0080B582B000AF78607868FFF72DFF00BF24
:10220C000837BD4680BD80B586B000AF0346B960C7
:10221C007A60FB7300237B61FFF742FF78617A6879
:10222C00B9687869FFF790FF024697F90F301146AD
:10223C001846FFF75FFF00BF1837BD4680BD80B55D
:10224C0082B000AF0346FB7197F907301846FFF7D1
:10225C0035FF00BF0837BD4680BD80B582B000AFEA
:10226C0078607868FFF7A2FF034618460837BD462A
:10227C0080BD000080B48BB000AF78603960002363
:10228C007B6200233B6261E101227B6A02FA03F369
:10229C00FB613B681B68FA691340BB61BA69FB6957
:1022AC009A4240F050813B685B68974A93425ED0FB
:1022BC00954A934275D8954A934258D0934A934283
:1022CC006FD8934A934252D0914A934269D8914A1B
:1022DC0093424CD08F4A934263D88F4A934246D054
:1022EC008D4A93425DD8122B2AD8122B59D801A2B1
:1022FC0052F823F07B2300085523000867230008BD
:10230C00A9230008AF230008AF230008AF2300085F
:10231C00AF230008AF230008AF230008AF23000849
:10232C00AF230008AF230008AF230008AF23000839
:10233C00AF230008AF2300085D23000871230008B9
:10234C00764A934213D02CE03B68DB683B6229E071
:10235C003B68DB6804333B6224E03B68DB68083392
:10236C003B621FE03B68DB680C333B621AE03B6866
:10237C009B68002B02D104233B6213E03B689B68F3
:10238C00012B05D108233B627B68FA691A6109E0CD
:10239C0008233B627B68FA695A6103E000233B62C5
:1023AC0000E000BFBB69FF2B01D87B6801E07B68B4
:1023BC0004337B61BB69FF2B02D87B6A9B0002E074
:1023CC007B6A083B9B003B617B691A680F213B6968
:1023DC0001FA03F3DB431A40396A3B6901FA03F350
:1023EC001A437B691A603B685B6803F08053002BCF
:1023FC0000F0A9804A4B9B69494A43F00103936161
:10240C00474B9B6903F00103BB60BB68454A7B6A81
:10241C009B08023352F82330FB607B6A03F0030302
:10242C009B000F2202FA03F3DB43FA681340FB60B4
:10243C007B683D4A93420DD07B683C4A934207D05F
:10244C007B683B4A934201D1022304E0032302E060
:10245C00012300E000237A6A02F003029200934009
:10246C00FA681343FB602F497B6A9B080233FA68B6
:10247C0041F823203B685B6803F48013002B06D0E3
:10248C002C4B9A682B49BB6913438B6006E0294B94
:10249C009A68BB69DB43274913408B603B685B68D8
:1024AC0003F40013002B06D0224BDA682149BB69D8
:1024BC001343CB6006E01F4BDA68BB69DB431D4955
:1024CC001340CB603B685B6803F40033002B06D0F1
:1024DC00184B5A681749BB6913434B6006E0154B00
:1024EC005A68BB69DB43134913404B603B685B681C
:1024FC0003F48033002B1FD00E4B1A680D49BB69B7
:10250C0013430B601FE000BF0000321000003110BD
:10251C000000221000002110000012100000111009
:10252C00001002400000014000080140000C014076
:10253C0000100140000401400B4B1A68BB69DB43DF
:10254C00094913400B607B6A01337B623B681A6854
:10255C007B6A22FA03F3002B7FF496AE00BF00BF18
:10256C002C37BD4680BC70470004014080B485B058
:10257C0000AF78600B467B807B689A687B88134041
:10258C00002B02D00123FB7301E00023FB73FB7BC8
:10259C0018461437BD4680BC704780B483B000AF7A
:1025AC0078600B467B8013467B707B78002B03D0C6
:1025BC007A887B681A6103E07B881A047B681A614D
:1025CC0000BF0C37BD4680BC704780B485B000AFEF
:1025DC0078600B467B807B68DB68FB607A88FB68E5
:1025EC0013401A04FB68D9437B880B401A437B6861
:1025FC001A6100BF1437BD4680BC704780B586B0E9
:10260C0000AF78607B68002B01D1012372E27B68FC
:10261C001B6803F00103002B00F08780924B5B6872
:10262C0003F00C03042B0CD08F4B5B6803F00C03F2
:10263C00082B12D18C4B5B6803F48033B3F5803FCD
:10264C000BD1894B1B6803F40033002B6CD07B68D7
:10265C005B68002B68D101234CE27B685B68B3F5A7
:10266C00803F06D1804B1B687F4A43F48033136054
:10267C002EE07B685B68002B0CD17B4B1B687A4A85
:10268C0023F480331360784B1B68774A23F4802340
:10269C0013601DE07B685B68B3F5A02F0CD1724B07
:1026AC001B68714A43F4802313606F4B1B686E4A9E
:1026BC0043F4803313600BE06B4B1B686A4A23F4C2
:1026CC0080331360684B1B68674A23F480231360C4
:1026DC007B685B68002B13D0FFF7B4FC386108E013
:1026EC00FFF7B0FC02463B69D31A642B01D90323D4
:1026FC0000E25D4B1B6803F40033002BF0D014E0B8
:10270C00FFF7A0FC386108E0FFF79CFC02463B6930
:10271C00D31A642B01D90323ECE1534B1B6803F44C
:10272C000033002BF0D100E000BF7B681B6803F086
:10273C000203002B63D04C4B5B6803F00C03002BA3
:10274C000BD0494B5B6803F00C03082B1CD1464B98
:10275C005B6803F48033002B16D1434B1B6803F0EA
:10276C000203002B05D07B681B69012B01D00123D0
:10277C00C0E13D4B1B6823F0F8027B685B69DB0012
:10278C00394913430B603AE07B681B69002B20D05E
:10279C00364B01221A60FFF755FC386108E0FFF751
:1027AC0051FC02463B69D31A022B01D90323A1E148
:1027BC002D4B1B6803F00203002BF0D02A4B1B6837
:1027CC0023F0F8027B685B69DB00274913430B603D
:1027DC0015E0264B00221A60FFF734FC386108E044
:1027EC00FFF730FC02463B69D31A022B01D90323B5
:1027FC0080E11D4B1B6803F00203002BF0D17B68BA
:10280C001B6803F00803002B3AD07B689B69002BF4
:10281C0019D0174B01221A60FFF714FC386108E03D
:10282C00FFF710FC02463B69D31A022B01D9032394
:10283C0060E10D4B5B6A03F00203002BF0D001202A
:10284C0000F09CFA1CE00A4B00221A60FFF7FAFB1E
:10285C0038610FE0FFF7F6FB02463B69D31A022BF7
:10286C0008D9032346E100BF001002400000424299
:10287C0080044242924B5B6A03F00203002BE9D1C5
:10288C007B681B6803F00403002B00F0A680002378
:10289C00FB758B4BDB6903F08053002B0DD1884B00
:1028AC00DB69874A43F08053D361854BDB6903F0C6
:1028BC008053BB60BB680123FB75824B1B6803F420
:1028CC008073002B18D17F4B1B687E4A43F48073B6
:1028DC001360FFF7B7FB386108E0FFF7B3FB024664
:1028EC003B69D31A642B01D9032303E1754B1B6895
:1028FC0003F48073002BF0D07B68DB68012B06D1CE
:10290C006F4B1B6A6E4A43F0010313622DE07B6828
:10291C00DB68002B0CD16A4B1B6A694A23F001035C
:10292C001362674B1B6A664A23F0040313621CE0B4
:10293C007B68DB68052B0CD1614B1B6A604A43F04A
:10294C00040313625E4B1B6A5D4A43F0010313627E
:10295C000BE05B4B1B6A5A4A23F001031362584B82
:10296C001B6A574A23F0040313627B68DB68002B55
:10297C0015D0FFF767FB38610AE0FFF763FB0246EF
:10298C003B69D31A41F28832934201D90323B1E057
:10299C004B4B1B6A03F00203002BEED014E0FFF745
:1029AC0051FB38610AE0FFF74DFB02463B69D31A35
:1029BC0041F28832934201D903239BE0404B1B6ABE
:1029CC0003F00203002BEED1FB7D012B05D13C4B18
:1029DC00DB693B4A23F08053D3617B68DB69002BB6
:1029EC0000F08780364B5B6803F00C03082B61D03A
:1029FC007B68DB69022B46D1334B00221A60FFF750
:102A0C0021FB386108E0FFF71DFB02463B69D31A36
:102A1C00022B01D903236DE0294B1B6803F00073D3
:102A2C00002BF0D17B681B6AB3F5803F08D1244B97
:102A3C005B6823F400327B689B68214913434B602D
:102A4C001F4B5B6823F474127B68196A7B685B6AA2
:102A5C000B431B4913434B601B4B01221A60FFF7BE
:102A6C00F1FA386108E0FFF7EDFA02463B69D31A38
:102A7C00022B01D903233DE0114B1B6803F00073BB
:102A8C00002BF0D035E0104B00221A60FFF7DAFA79
:102A9C00386108E0FFF7D6FA02463B69D31A022BDD
:102AAC0001D9032326E0064B1B6803F00073002BAF
:102ABC00F0D11EE07B68DB69012B07D1012319E003
:102ACC000010024000700040600042420B4B5B68FB
:102ADC00FB60FB6803F480327B681B6A9A4206D168
:102AEC00FB6803F470127B685B6A9A4201D0012385
:102AFC0000E0002318461837BD4680BD0010024088
:102B0C0080B584B000AF786039607B68002B01D150
:102B1C000123D0E06A4B1B6803F007033A689A4222
:102B2C0010D9674B1B6823F0070265493B681343B8
:102B3C000B60634B1B6803F007033A689A4201D0A1
:102B4C000123B8E07B681B6803F00203002B20D044
:102B5C007B681B6803F00403002B05D0594B5B68A2
:102B6C00584A43F4E06353607B681B6803F0080326
:102B7C00002B05D0534B5B68524A43F460535360AF
:102B8C00504B5B6823F0F0027B689B684D49134304
:102B9C004B607B681B6803F00103002B40D07B6803
:102BAC005B68012B07D1474B1B6803F40033002BE8
:102BBC0015D101237FE07B685B68022B07D1414B69
:102BCC001B6803F00073002B09D1012373E03D4B0C
:102BDC001B6803F00203002B01D101236BE0394B7E
:102BEC005B6823F003027B685B68364913434B60D8
:102BFC00FFF728FAF8600AE0FFF724FA0246FB68B0
:102C0C00D31A41F28832934201D9032353E02D4B5E
:102C1C005B6803F00C027B685B689B009A42EBD10B
:102C2C00274B1B6803F007033A689A4210D2244BD7
:102C3C001B6823F0070222493B6813430B60204BAF
:102C4C001B6803F007033A689A4201D0012332E073
:102C5C007B681B6803F00403002B08D0194B5B68DE
:102C6C0023F4E0627B68DB68164913434B607B6896
:102C7C001B6803F00803002B09D0124B5B6823F48C
:102C8C0060527B681B69DB000E4913434B6000F0FC
:102C9C0021F802460B4B5B681B0903F00F030A4932
:102CAC00CB5C22FA03F3094A1360094B1B681846E4
:102CBC00FFF786F9002318461037BD4680BD00BFCC
:102CCC000020024000100240EC35000858000020A3
:102CDC005C00002080B487B000AF0023FB600023B1
:102CEC00BB6000237B6100237B6000233B611E4B98
:102CFC005B68FB60FB6803F00C03042B02D0082B11
:102D0C0003D027E0194B3B6127E0FB689B0C03F0D9
:102D1C000F03174AD35C7B60FB6803F48033002BF2
:102D2C0010D0114B5B685B0C03F00103114AD35CB0
:102D3C00BB607B680D4A03FB02F2BB68B2FBF3F38A
:102D4C007B6104E07B680C4A02FB03F37B617B69CB
:102D5C003B6102E0054B3B6100BF3B6918461C37E9
:102D6C00BD4680BC704700BF0010024000127A00C4
:102D7C00FC3500080C36000800093D0080B485B015
:102D8C0000AF78600A4B1B680A4AA2FB03235B0A5C
:102D9C007A6802FB03F3FB6000BFFB685A1EFA6003
:102DAC00002BF9D100BF00BF1437BD4680BC704763
:102DBC0058000020D34D621080B582B000AF78600F
:102DCC007B68002B01D1012341E07B6893F83D30F7
:102DDC00DBB2002B06D17B68002283F83C2078689C
:102DEC00FEF796FF7B68022283F83D207B681A6809
:102DFC007B6804331946104600F056FA7B680122B2
:102E0C0083F846207B68012283F83E207B680122F0
:102E1C0083F83F207B68012283F840207B680122E5
:102E2C0083F841207B68012283F842207B680122D1
:102E3C0083F843207B68012283F844207B680122BD
:102E4C0083F845207B68012283F83D200023184637
:102E5C000837BD4680BD000080B485B000AF7860F7
:102E6C007B6893F83D30DBB2012B01D0012335E0B8
:102E7C007B68022283F83D207B681B68DA687B68DC
:102E8C001B6842F00102DA607B681B68164A9342A9
:102E9C0009D07B681B68B3F1804F04D07B681B683A
:102EAC00124A934211D17B681B689B6803F007039D
:102EBC00FB60FB68062B10D07B681B681A687B686C
:102ECC001B6842F001021A6007E07B681B681A68F5
:102EDC007B681B6842F001021A6000231846143705
:102EEC00BD4680BC704700BF002C01400004004070
:102EFC0080B584B000AF78607B681B68DB68FB60D2
:102F0C007B681B681B69BB60BB6803F00203002B6A
:102F1C0020D0FB6803F00203002B1BD07B681B68DE
:102F2C006FF002021A617B6801221A777B681B68BA
:102F3C009B6903F00303002B03D0786800F098F929
:102F4C0005E0786800F08BF9786800F09AF97B68F6
:102F5C0000221A77BB6803F00403002B20D0FB6817
:102F6C0003F00403002B1BD07B681B686FF004027A
:102F7C001A617B6802221A777B681B689B6903F4D1
:102F8C004073002B03D0786800F072F905E0786884
:102F9C0000F065F9786800F074F97B6800221A7704
:102FAC00BB6803F00803002B20D0FB6803F0080378
:102FBC00002B1BD07B681B686FF008021A617B68C2
:102FCC0004221A777B681B68DB6903F00303002B70
:102FDC0003D0786800F04CF905E0786800F03FF910
:102FEC00786800F04EF97B6800221A77BB6803F012
:102FFC001003002B20D0FB6803F01003002B1BD018
:10300C007B681B686FF010021A617B6808221A77C4
:10301C007B681B68DB6903F44073002B03D0786872
:10302C0000F026F905E0786800F019F9786800F0EE
:10303C0028F97B6800221A77BB6803F00103002B88
:10304C000CD0FB6803F00103002B07D07B681B68D6
:10305C006FF001021A617868FEF7E4FCBB6803F0BC
:10306C008003002B0CD0FB6803F08003002B07D0EF
:10307C007B681B686FF080021A61786800F06FFA49
:10308C00BB6803F04003002B0CD0FB6803F040033B
:10309C00002B07D07B681B686FF040021A617868C0
:1030AC0000F0F8F8BB6803F02003002B0CD0FB6891
:1030BC0003F02003002B07D07B681B686FF0200205
:1030CC001A61786800F042FA00BF1037BD4680BD27
:1030DC0080B584B000AF786039600023FB737B68E7
:1030EC0093F83C30012B01D10223B4E07B68012220
:1030FC0083F83C207B68022283F83D207B681B68A8
:10310C009B68BB60BB6823F07703BB60BB6823F490
:10311C007F43BB607B681B68BA689A603B681B681E
:10312C00B3F5005F3ED0B3F5005F00F28780B3F5D6
:10313C00805F00F08680B3F5805F7FD8702B1AD04B
:10314C00702B7BD8602B50D0602B77D8502B3CD079
:10315C00502B73D8402B58D0402B6FD8302B64D0C9
:10316C00302B6BD8202B60D0202B67D8002B5CD059
:10317C00102B5AD062E07B6818683B6899683B68F2
:10318C005A683B68DB6800F06AF97B681B689B68CF
:10319C00BB60BB6843F07703BB607B681B68BA6895
:1031AC009A604FE07B6818683B6899683B685A687E
:1031BC003B68DB6800F053F97B681B689A687B6896
:1031CC001B6842F480429A603CE07B6818683B685C
:1031DC0059683B68DB681A4600F0CAF87B681B68C4
:1031EC005021184600F021F92CE07B6818683B68E8
:1031FC0059683B68DB681A4600F0E8F87B681B6886
:10320C006021184600F011F91CE07B6818683B68D7
:10321C0059683B68DB681A4600F0AAF87B681B68A3
:10322C004021184600F001F90CE07B681A683B68F5
:10323C001B681946104600F0F8F803E00123FB73F5
:10324C0000E000BF7B68012283F83D207B680022F0
:10325C0083F83C20FB7B18461037BD4680BD80B4FC
:10326C0083B000AF786000BF0C37BD4680BC7047A0
:10327C0080B483B000AF786000BF0C37BD4680BC13
:10328C00704780B483B000AF786000BF0C37BD4688
:10329C0080BC704780B483B000AF786000BF0C373F
:1032AC00BD4680BC7047000080B485B000AF78602C
:1032BC0039607B681B68FB607B682B4A934207D0A4
:1032CC007B68B3F1804F03D07B68284A934208D1C6
:1032DC00FB6823F07003FB603B685B68FA68134380
:1032EC00FB607B68204A934207D07B68B3F1804F28
:1032FC0003D07B681D4A934208D1FB6823F44073CA
:10330C00FB603B68DB68FA681343FB60FB6823F0E7
:10331C0080023B685B691343FB607B68FA681A6048
:10332C003B689A687B68DA623B681A687B689A62C9
:10333C007B680D4A934203D13B681A697B681A6318
:10334C007B6801225A617B681B6903F00103002B27
:10335C0005D07B681B6923F001027B681A6100BFF2
:10336C001437BD4680BC7047002C0140000400405F
:10337C0080B487B000AFF860B9607A60FB681B6AF4
:10338C007B61FB681B6A23F00102FB681A62FB6815
:10339C009B693B613B6923F0F0033B617B681B013C
:1033AC003A6913433B617B6923F00A037B617A69B9
:1033BC00BB6813437B61FB683A699A61FB687A6965
:1033CC001A6200BF1C37BD4680BC704780B487B002
:1033DC0000AFF860B9607A60FB681B6A7B61FB68C0
:1033EC001B6A23F01002FB681A62FB689B693B6145
:1033FC003B6923F470433B617B681B033A691343BD
:10340C003B617B6923F0A0037B61BB681B017A697C
:10341C0013437B61FB683A699A61FB687A691A62AB
:10342C0000BF1C37BD4680BC704780B485B000AF70
:10343C00786039607B689B68FB60FB6823F07003E5
:10344C00FB603A68FB68134343F00703FB607B683F
:10345C00FA689A6000BF1437BD4680BC704780B4D0
:10346C0087B000AFF860B9607A603B60FB689B681E
:10347C007B617B6923F47F437B613B681A027B6829
:10348C001A43BB6813437A6913437B61FB687A69FF
:10349C009A6000BF1C37BD4680BC704780B485B0B5
:1034AC0000AF786039607B6893F83C30012B01D118
:1034BC00022341E07B68012283F83C207B680222D6
:1034CC0083F83D207B681B685B68FB607B681B682E
:1034DC009B68BB60FB6823F07003FB603B681B6858
:1034EC00FA681343FB607B681B68FA685A607B6858
:1034FC001B68144A934209D07B681B68B3F1804F58
:10350C0004D07B681B68104A93420CD1BB6823F033
:10351C008003BB603B685B68BA681343BB607B6825
:10352C001B68BA689A607B68012283F83D207B682F
:10353C00002283F83C20002318461437BD4680BC7B
:10354C00704700BF002C01400004004080B483B0E1
:10355C0000AF786000BF0C37BD4680BC704780B4AC
:10356C0083B000AF786000BF0C37BD4680BC70479D
:10357C0003460244934200D1704703F8011BF9E75C
:10358C0070B500260C4D0D4C641BA410A64209D13D
:10359C0000F01AF800260A4D0A4C641BA410A6422F
:1035AC0005D170BD55F8043B98470136EEE755F848
:1035BC00043B98470136F2E7103600081036000835
:1035CC001036000814360008F8B500BFF8BC08BC6B
:1035DC009E467047F8B500BFF8BC08BC9E467047C5
:1035EC0000000000000000000102030406070809A7
:1035FC0002030405060708090A0B0C0D0E0F101028
:04360C0001020000B7
:04361000310100087C
:043614000D0100089C
:103618000002000000040000000800000100000093
:10362800010000000100000001000000010000008E
:10363800010000000100000001000000010000007E
:10364800010000000100000001000000F40100007A
:10365800F4010000F40100005F0000005A000000BF
:10366800050000000100000000127A0010000000B0
:04367800010000004D
:0400000508001F557B
:00000001FF
